:020000040800F2
:1000000088160020CD110008F5040008F704000848
:10001000FB040008FF0400080305000800000000BE
:1000200000000000000000000000000007050008BC
:1000300009050008000000005F4F0008F10F0008EC
:10004000E7110008E7110008E7110008E7110008B0
:10005000E7110008E7110008E7110008E7110008A0
:10006000E7110008E7110008E7110008E711000890
:10007000E7110008E7110008E7110008E711000880
:10008000E7110008E7110008E7110008E711000870
:10009000E7110008E7110008E7110008E711000860
:1000A000E7110008E7110008E7110008E711000850
:1000B000E7110008E71100085F0D0008E7110008CC
:1000C000E7110008E7110008E7110008E711000830
:1000D000E7110008E7110008E7110008E711000820
:1000E000E7110008E7110008E7110008E711000810
:1000F000E7110008E7110008E7110008E711000800
:10010000E7110008E7110008190C0008E7110008C2
:10011000E7110008E7110008E7110008E7110008DF
:10012000E7110008E7110008E7110008E7110008CF
:1001300000F002F800F042F80AA090E8000C8244B7
:100140008344AAF10107DA4501D100F037F8AFF294
:10015000090EBAE80F0013F0010F18BFFB1A43F0A5
:10016000010318475CBD00007CBD0000103A24BFAD
:1001700078C878C1FAD8520724BF30C830C144BF0C
:1001800004680C607047000000230024002500264E
:10019000103A28BF78C1FBD8520728BF30C148BFEA
:1001A0000B607047642908F03387782908F06A8764
:1001B000002070471FB51FBD10B510BD09F0BCF978
:1001C0001146FFF7F7FF00F065F809F0DAF903B41C
:1001D000FFF7F2FF03BC00F08BFF0000002400BF1C
:1001E0000EE004F095FE04463D493E4807F0E7FB6B
:1001F00000F09FF9204604F08FFE0A2000F049FF2E
:10020000EFE7002400BF0BE004F082FE044636480E
:1002100000F076FB204604F07FFE0A2000F039FF54
:10022000F2E711E004F026FF04F097FF04F0F7FF77
:1002300005F07CF805F0CBF82C4801782CA008F0EC
:10024000B3FE142000F025FFECE770B5044600254E
:1002500000BF03F0C7F804F05BFE05460423294AFB
:100260000021AFF2870004F033FA0623264A00216A
:10027000AFF2710004F02CFA0823244A0021AFF2F7
:100280005D0004F025FA0A2004F0A2FC284604F0E0
:1002900043FE70BD10B500F0B3FE00F023FF00F088
:1002A00081FE4FF4E13000F032FF08F017FD08F056
:1002B000F0FB07F039FB00F0C1FB05F036F9042034
:1002C00005F0B1FA02F051FF0A23114A0021AFF202
:1002D000850004F0FDF903F06DF8002010BD00006A
:1002E0003C0100202401002048010020B000002033
:1002F0004F534350555573616765206973202564DA
:10030000200A0000880200208803002088040020C2
:10031000880500200CB50020019000906C48006812
:1003200040F480306A49086000BF6948006800F402
:10033000003000900198401C0190009818B9019875
:10034000B0F5A06FF1D16248006800F4003010B140
:100350000120009001E0002000900098012843D186
:100360005C48006840F010005A4908600846006880
:1003700020F0030008600846006840F002000860B2
:1003800053484068524948600846406848600846FB
:10039000406840F4806048600846406820F47C1063
:1003A00048600846406840F4E81048600846006825
:1003B00040F08070086000BF4548006800F00070A1
:1003C0000028F9D04248406820F0030040494860C6
:1003D0000846406840F00200486000BF3C48406862
:1003E00000F00C000828F9D10CBD10B5FFF792FF02
:1003F00010BD10B53648006840F00100344908606F
:100400000846406834490840314948600846006859
:10041000324908402E4908600846006820F48020D0
:1004200008600846406820F4FE0048604FF41F0052
:100430008860FFF7DAFF4FF000602949086010BDBF
:1004400010B5002100200022214B5B6803F00C0155
:1004500021B1042906D0082928D107E0214B224CDC
:10046000236027E01F4B204C236023E0184B5B6880
:1004700003F47010164B5B6803F48032022303EB25
:10048000904022B9194B4343174C23600DE0104BA9
:100490005B6803F4003323B1144B4343124C2360D5
:1004A00003E0104B4343104C236003E00D4B0E4C14
:1004B000236000BF00BF064B5B68C3F303130C4C03
:1004C000E15C094B1B68CB40074C236010BD00006A
:1004D00000100240002002400000FFF8FFFFF6FE7F
:1004E00008ED00E000127A000C00002000093D0039
:1004F00010000020704700BFFEE700BFFEE700BF0E
:10050000FEE700BFFEE770477047000070B5054684
:100510000C46214628460AF04FFC00D2254684F0BE
:100520000046294630460AF047FC01D284F00045D7
:1005300070BD2DE9FF5FD649B1F902000AF010FB4A
:100540008246D448416850460AF068FC0446D249C5
:100550002046FFF7DBFF2146D04800680AF060F92B
:10056000CE490860CE49CD480068FFF7CFFFCB48A1
:100570000168CC4800680AF053FB82462146CA480D
:1005800000680AF04DFB834651460AF049F981465E
:10059000BF49B1F904000AF0E3FA8246BD48016898
:1005A00050460AF03BFC0546BB492846FFF7AEFF24
:1005B0002946BE4800680AF033F9BC490860B849CA
:1005C000BA480068FFF7A2FFB8480168B54800685C
:1005D0000AF026FB82462946B34800680AF020FB51
:1005E000834651460AF01CF90390B14841684846D9
:1005F0000AF014FC0646AF480068AF490860AD48F1
:1006000006603146AD4800680AF00AF9AB49086057
:10061000AB49AA480068FFF779FFA7480168A548D9
:1006200000680AF0FBFB0190A648016801980AF0F7
:10063000F7FA8246A1480168A34800680AF0F0FA78
:1006400031460190A14800680AF0EAFA0090019949
:100650000AF0E6F8834651460AF0E2F880469C49E3
:100660004046FFF753FF9248016803980AF0D6FB13
:1006700007469848006898490860964807603946D8
:10068000964800680AF0CCF8944908608C49934871
:100690000068FFF73BFF904801688E4800680AF049
:1006A000BDFB01908748016801980AF0B9FA8246BB
:1006B0008A480168844800680AF0B2FA3946019015
:1006C000824800680AF0ACFA009001990AF0A8F894
:1006D000834651460AF0A4F802907D490298FFF73C
:1006E00015FF6B49B1F9001001F516700AF038FAE0
:1006F000834641460AF094F882460AF011FA784996
:1007000008806349B1F9001001F516700AF028FA63
:10071000834641460AF082FB82460AF001FA71499B
:1007200008805B49B1F9001001F516700AF018FA5B
:10073000834641460AF072FB82460AF0F1F96A49A3
:1007400008805349B1F9001001F516700AF008FA53
:10075000834641460AF064F882460AF0E1F96349AB
:1007600008804C49486862490AF026FB02D2002002
:1007700060490880474948685F490AF01DFA02D27B
:1007800000205C4908804349086859490AF014FB75
:1007900002D20020574908803E49086856490AF0AD
:1007A0000BFA02D20020534908805248008880B9D1
:1007B00000204B4908804B4908804B4908804B4931
:1007C000088036490860394908603C490860434957
:1007D00008604348008840F2EC41884202DD084648
:1007E0003F4908803F48008840F2EC41884202DDE2
:1007F00008463C4908803C48008840F2EC41884269
:1008000002DD0846384908803848008840F2EC414B
:10081000884202DD08463549088031480088B0F535
:10082000077F03DA4FF407702D4908802D480088B0
:10083000B0F5077F03DA4FF407702A4908802A4889
:100840000088B0F5077F03DA4FF407702649088067
:1008500026480088B0F5077F03DA4FF40770234974
:1008600008801F480188254802F00CF91D480188BE
:10087000224802F009F91C480188204802F006F9D4
:100880001A4801881D4802F003F9BDE8FF9F0000E7
:1008900048010020240100200000344240000020D4
:1008A000000048432C0000202800002044000020C5
:1008B0003C0100205400002050000020480000208F
:1008C0000000FA443C0000203800002034000020E2
:1008D00000007A435C000020580000204C000020FB
:1008E00020000020220000202400002026000020FC
:1008F0000000F041000000200000F0C100040040B2
:100900002DE9F0470446FD480088B0F5906F07DAFE
:100910000020FB4908702080E0806080A0808BE090
:10092000F6490988C1F5F86009F049FC074600223C
:100930004FF0804309F0BCFA054609F011FC00B203
:100940002080EE48408800B2E080EC480089A0F5A5
:10095000B1601E2190FBF1F000B26080B4F902009A
:100960000A2801DD0A206080B4F9020010F10A0FA4
:1009700002DA6FF009006080E0484089A0F5CC60A1
:100980001E2190FBF1F000B2A080B4F904000A2807
:1009900001DD0A20A080B4F9040010F10A0F02DA88
:1009A0006FF00900A080D548808800B22081D4482B
:1009B00000784FF4FA71484300B26081CF48C08894
:1009C00000B2A081CD49C8880AF0E2F88246CD493C
:1009D0000AF024FA814609F0F7FE07460022CA4BC6
:1009E00009F066FA054609F081F9C8490860C84867
:1009F000007801280BD1C148808840F2DC51884240
:100A000005DD0120BE4908700020C1490870BB48BF
:100A1000808840F2DC51884202DA0020B849087030
:100A2000B748007840B9B548808840F2DC51884228
:100A300002DA0120B6490870BDE8F08700B58BB036
:100A40001E208DF8000000208DF8010001208DF897
:100A500002008DF80300684600F0DDFB32208DF8BF
:100A60000000684600F0D7FB01210C2000F065FF74
:100A700001210C2000F054FF4FF47070ADF82800F5
:100A800048208DF82B000AA9A24800F08DFC4FF4F5
:100A90007071A04800F037FD0320ADF82800482011
:100AA0008DF82B000AA99C4800F07EFC03219A488F
:100AB00000F029FD44F61F60ADF820004720ADF896
:100AC0001C000020ADF82200ADF81E0007A99348D5
:100AD00001F0E4F90020ADF80400ADF806000120B3
:100AE000ADF808000020ADF80A00ADF80C0001A92F
:100AF0008A4801F066FC0420ADF804000020ADF83F
:100B000006000120ADF808000020ADF80A00ADF89D
:100B10000C0001A9814801F054FC0820ADF8040044
:100B20000020ADF806000120ADF808000020ADF867
:100B30000A00ADF80C0001A9784801F042FC0C2035
:100B4000ADF804000020ADF806000120ADF8080063
:100B50000020ADF80A00ADF80C0001A96F4801F0C3
:100B600030FC44F61F60ADF820004720ADF81C00B3
:100B70000020ADF82200ADF81E0007A9684801F07A
:100B80008DF90020ADF81000ADF812000120ADF88D
:100B900014000020ADF81600ADF8180004A9604854
:100BA00001F00FFC0420ADF810000020ADF8120099
:100BB0000120ADF814000020ADF81600ADF81800C3
:100BC00004A9574801F0FDFB01220221534801F01E
:100BD000DCFC01220421514801F0D7FC012208214C
:100BE0004E4801F0D2FC012210214C4801F0CDFC0E
:100BF000012202214A4801F0C8FC01220421484890
:100C000001F0C3FC0121454801F0A4FC0121444846
:100C100001F0A0FC0BB000BD10B502F0BCFA02213F
:100C20003F4801F060FF012837D102213C4801F024
:100C30006BFF3C48007860B9394801F035FF3A490C
:100C400008800120374908700221354801F034FE40
:100C500023E0334801F028FF344908800846008823
:100C60003149098888420ADA2F48008844F6206111
:100C7000081A2E49098808442049088106E02B48B3
:100C8000008829490988401A1C4908810020254903
:100C900008700021224801F00FFE0421204801F0D5
:100CA00022FF012858D104211D4801F02DFF2048C2
:100CB000007860B91A4801F0FAFE1E490880012048
:100CC0001B4908700221164801F008FE44E0144850
:100CD00001F0EDFE1849088008460088154909888A
:100CE00088422BDA1348008844F62061081A12491A
:100CF000098808440149488127E000008C0500204C
:100D00000000002000007A44000059403400002018
:100D100060000020000C0140000801400008004075
:100D2000000C0040610000206200002064000020F0
:100D300066000020680000206A00002087480088C4
:100D400087490988401A87494881002086490870E8
:100D50000021864801F0C2FD02F038FA10BD10B53E
:100D600002F019FA0221824801F0BDFE012837D1B4
:100D700002217F4801F0C8FE7E48007860B97C48B7
:100D800001F092FE7C49088001207A490870022116
:100D9000774801F091FD23E0754801F085FE774921
:100DA0000880084600887449098888420ADA72482F
:100DB000008844F62061081A704909880844694986
:100DC000088006E06D4800886B490988401A65492B
:100DD00008800020674908700021654801F06CFD1B
:100DE0000421634801F07FFE012837D104216048C7
:100DF00001F08AFE6248007860B95D4801F057FE54
:100E00006049088001205E4908700221584801F0BD
:100E100065FD23E0564801F04AFE5B49088008461C
:100E200000885849098888420ADA5648008844F6FA
:100E30002061081A5449098808444A49488006E054
:100E4000514800884F490988401A46494880002087
:100E50004B4908700021464801F040FD08214448F4
:100E600001F041FE012837D10821414801F04CFE34
:100E70004648007860B93E4801F01CFE44490880AD
:100E80000120424908700221394801F041FD23E068
:100E9000374801F00FFE3F490880084600883C496A
:100EA000098888420ADA3A48008844F62061081A1C
:100EB0003849098808442B49888006E0354800886D
:100EC00033490988401A2749888000202F49087033
:100ED0000021274801F01CFD1021254801F003FEE8
:100EE000012837D11021224801F00EFE2A4800784F
:100EF00060B91F4801F0E1FD28490880012026491A
:100F0000087002211A4801F01DFD23E0184801F085
:100F1000D4FD234908800846008820490988884272
:100F20000ADA1E48008844F62061081A1C4909881C
:100F300008440C49C88006E0194800881749098808
:100F4000401A0849C8800020134908700021084849
:100F500001F0F8FC02F03AF910BD00006A00002030
:100F6000680000208C05002066000020000C004076
:100F7000000800406C0000206E000020700000207F
:100F8000720000207400002076000020780000200D
:100F90007A0000207C0000207E00002080000020DD
:100FA0008200002008B50121482000F0B9FC202073
:100FB000ADF8000010208DF8030003208DF802002A
:100FC0006946094800F0F0F92021074800F099FA35
:100FD0002020ADF800006946044800F0E5F9202122
:100FE000024800F08EFA08BD000C014000180140D4
:100FF00010B502F0D0F802F014FA02F0E7F810BDD4
:1010000010B56FF0040000F050F931480068314924
:10101000B0FBF1F0304908702D4800682D49B0FB55
:10102000F1F44FF47A70444301202C4908804FF0CA
:10103000E020006940F002004FF0E021086108461E
:101040004461006940F00100086110BD70B50346BD
:1010500000224FF0E02675691F4E367803FB06F438
:1010600000BF4FF0E026B16910E04FF0E026B06914
:1010700088420BD0884202D20E1A324402E02E1A65
:101080000E4432440146A24200D300E0EDE700BF27
:1010900070BD70B5044612480078012811D10F4880
:1010A0000088844206DB0D48008894FBF0F5284652
:1010B00003F056FE0948008894FBF0F100FB114054
:1010C00084B24FF47A7104FB01F0FFF7BFFF70BDEB
:1010D0000C00002000127A0084000020860000200E
:1010E000CA00002010B54FF4A06000F08FF810BDCA
:1010F000014600BF704700BF324A128802F040022A
:10110000002AF9D0C2B22F4B1B1D1A80704710B5B0
:1011100086B00446012144F2040000F001FC4FF4C3
:101120000070ADF8140003208DF8160018208DF81B
:10113000170005A9244800F037F94FF48060ADF896
:10114000140004208DF8170005A91F4800F02CF9A1
:1011500025208DF8000003208DF801008DF8020095
:1011600001208DF80300684600F055F80194002036
:10117000ADF80800ADF80A00ADF80C00ADF81000AD
:101180000C20ADF80E0001A90E4801F004FD01226B
:1011900040F225510B4801F096FD0121094801F06C
:1011A00086FD06B010BD10B5044600BF40210548BD
:1011B00001F058FE0028F9D02146024801F0E4FD74
:1011C00010BD000000380140000801400948804778
:1011D00009480047FEE7FEE7FEE7FEE7FEE7FEE719
:1011E000FEE7FEE7FEE7FEE704480549054A064B31
:1011F00070470000F3030008310100088810002048
:1012000088160020881200208812002031490143EE
:10121000314A1160704770B5002100230F22C47855
:1012200004B32D4C246804F4E064C4F5E064210A9E
:10123000C1F10403CA40447804FA03F184781440ED
:1012400021430901254C0678A155047804F01F05B7
:101250000124AC4005786D11AD0005F1E025C5F81D
:10126000004109E0047804F01F050124AC401C4D46
:101270000678761145F8264070BD1A4A0A400243A6
:10128000154B1B1F1A60704739B1134A121D1268A3
:101290000243114B1B1D1A6006E00F4A121D126813
:1012A00082430D4B1B1D1A607047042808D14FF074
:1012B000E021096941F004014FF0E022116107E0EB
:1012C0004FF0E021096921F004014FF0E0221161A3
:1012D000704700000000FA050CED00E000E400E0BB
:1012E00080E100E080FFFF1F10B50446CC48844237
:1012F00008D10121042000F02DFB0021042000F082
:1013000029FB46E0C748844208D10121082000F0AB
:1013100021FB0021082000F01DFB3AE0C248844276
:1013200008D10121102000F015FB0021102000F051
:1013300011FB2EE0BD48844208D10121202000F09D
:1013400009FB0021202000F005FB22E0B848844280
:1013500008D10121402000F0FDFA0021402000F0DA
:10136000F9FA16E0B348844208D10121802000F048
:10137000F1FA0021802000F0EDFA0AE0AE48844244
:1013800007D10121801500F0E5FA0021A01500F039
:10139000E1FA10BD10B50121084600F0DBFA00218A
:1013A000012000F0D7FA10BD2DE9F04102460025DA
:1013B0000026002000230024002791F803C00CF031
:1013C0000F0591F803C00CF0100CBCF1000F03D016
:1013D00091F802C04CEA050591F800C0BCF1000F7D
:1013E00031D0146800202BE04FF0010C0CFA00F310
:1013F000B1F800C00CEA03069E4220D183004FF0F2
:101400000F0C0CFA03F7BC4305FA03FC4CEA040486
:1014100091F803C0BCF1280F06D14FF0010C0CFA73
:1014200000FCC2F814C00AE091F803C0BCF1480FF8
:1014300005D14FF0010C0CFA00FCC2F810C0401CA2
:101440000828D1D31460B1F800C0BCF1FF0F34DD1F
:10145000546800202EE000F1080C4FF0010808FA53
:101460000CF3B1F800C00CEA03069E4221D18300C0
:101470004FF00F0C0CFA03F7BC4305FA03FC4CEADF
:10148000040491F803C0BCF1280F05D100F1080C49
:1014900008FA0CF8C2F8148091F803C0BCF1480FA8
:1014A00007D100F1080C4FF0010808FA0CF8C2F857
:1014B0001080401C0828CED35460BDE8F0814FF660
:1014C000FF710180022181700421C17070470246C2
:1014D000002093680B400BB1012000E00020704712
:1014E0000146886880B2704702460020D3680B40EE
:1014F0000BB1012000E0002070470146C86880B2AF
:10150000704701617047416170470AB1016100E0B5
:1015100041617047C16070474FF480320A43826175
:101520008161826182698269704702460020434B73
:1015300018684FF68073184040EA021008433F4B8A
:10154000186070473E49C8617047F0B50A460023ED
:1015500000240021002500F00046B6F1004F02D122
:10156000364EF16901E0354E7168C0F3034583B230
:1015700000F44016B6F5401F08D121F070612F4EDF
:10158000766826F070662D4F7E6012E000F48016BB
:10159000B6F5801F06D1032606FA05F4A14341F0F3
:1015A000706106E0460D360103FA06F6B14341F0DC
:1015B000706122B1460D360103FA06F6314300F0A0
:1015C0000046B6F1004F02D11C4EF16101E01B4E06
:1015D0007160F0BD30B500228B071C0F0F2303FA9A
:1015E00004F2164B08338C1053F824309343134CF9
:1015F00008348D1044F8253023468C1053F82430DD
:101600008C07240F00FA04F423430C4C08348D108B
:1016100044F8253030BD0A49DC31086070470000CD
:1016200000080140000C014000100140001401407E
:1016300000180140001C0140002001400000014052
:1016400000002042DF48006840F00100DD490860EA
:1016500008464068DC490840DA49486008460068A6
:10166000DA490840D74908600846006820F480201D
:1016700008600846406820F4FE0048604FF41F00F0
:1016800088607047CF49096821F48031CD4A1160E4
:101690001146096821F480211160B0F5803F03D024
:1016A000B0F5802F0ED106E0C649096841F48031BB
:1016B000C44A116007E0C349096841F4A021C14A46
:1016C000116000E000BF00BF704710B50146002266
:1016D000002300204A11012A02D1BA4C236806E0F7
:1016E000022A02D1B74C236A01E0B64C636A01F0CA
:1016F0001F02012494401C400CB1012000E0002096
:1017000010BD38B5002000900024002500BF312016
:10171000FFF7DBFF05460098401C00900098B0F5ED
:10172000A06F01D0002DF2D03120FFF7CEFF08B11D
:10173000012400E00024204638BD01460020A14AD3
:10174000106820F0F80040EAC10010607047A0491E
:1017500008607047024600209A4B586820F47C10BD
:1017600042EA01031843974B58607047984908664E
:10177000704701460020934A506820F00300084358
:10178000506070478F48406800F00C007047014679
:1017900000208C4A506820F0F000084350607047E9
:1017A00001460020874A506820F4E06008435060FA
:1017B000704701460020834A506820F4605040EA98
:1017C000C1005060704729B17E4A527A02437D4B76
:1017D0005A7204E07B4A527A82437A4B5A727047BB
:1017E0007B49D8310860704701460020754A50682F
:1017F00020F440400843506070470021714A203275
:101800001170704A82F82010012802D004280AD1F1
:1018100004E001216B4A2032117005E00521694A7C
:101820002032117000E000BF00BF704769490860B6
:1018300070476449096A0143624A11627047654909
:1018400044390860704730B500210022002400238D
:101850005C4D6D6805F00C0121B1042905D0082903
:1018600023D105E05C4D056022E05B4D05601FE083
:10187000544D6D6805F47012524D6D6805F4803456
:10188000022505EB92421CB9544D554305600BE00F
:101890004C4D6D6805F400351DB1504D5543056044
:1018A00002E04D4D5543056002E04B4D056000BF21
:1018B00000BF444D6D6805F0F0010909484D6B5CAF
:1018C0000568DD4045603F4D6D6805F4E061090A3B
:1018D000434D6B5C4568DD4085603A4D6D6805F4AD
:1018E0006051C90A3E4D6B5C4568DD40C560354DB1
:1018F0006D6805F44041890B3A4D6B5CC568B5FBDA
:10190000F3F5056130BD29B12E4A526902432D4BD2
:101910005A6104E02B4A526982432A4B5A6170474C
:1019200029B1284A92690243264B9A6104E0254A6C
:1019300092698243234B9A61704729B1214AD26947
:101940000243204BDA6104E01E4AD26982431D4BF8
:10195000DA61704729B11B4AD2680243194BDA6039
:1019600004E0184AD2688243164BDA60704729B106
:10197000144A12690243134B1A6104E0114A1269B6
:101980008243104B1A617047124940390860704712
:101990000F49C86470470B49C87170470948406ACD
:1019A00040F0807007494862704701460020054AB0
:1019B00092680A400AB1012000E000207047014906
:1019C00088727047001002400000FFF8FFFFF6FE2B
:1019D000000042428004424200127A0000093D00A9
:1019E0008E0000209E00002010B50446BE488442B0
:1019F00008D101218014FFF7ADFF0021A014FFF7EB
:101A0000A9FF16E0B948844208D101210014FFF76C
:101A1000AEFF00212014FFF7AAFF0AE0B448844279
:101A200007D10121C013FFF7A2FF0021E013FFF748
:101A30009EFF10BD10B50022028802F441520B88AF
:101A40004C8823438C882343CC8823430C8923432D
:101A50004C8923438C892343CC8923431A43028036
:101A6000838B4FF2FF74234083830B8A038210BD64
:101A70002DE9F04F85B005460C464FF000090227CE
:101A80004FF000084FF0010B0026B246A88B4FF232
:101A900040010840A88302202884B5F81C90A06863
:101AA000022801D100BF38E0A08810B94FF0010B27
:101AB00001E04FF0020B8D48854200D100E000BFED
:101AC0006846FFF7C0FEDDF800A0E088B0F5007FB3
:101AD0000AD14FEA1A2000EB80004000A168B0FB59
:101AE000F1F0401D86B20BE04FEA4B10BAFBF0F06C
:101AF00000EB80004000A168B0FBF1F0401D86B211
:101B00000A20B6FBF0F606F00108A6EB0800C0F3C9
:101B10004F074FF6FF7000EA0828022F01DBFF2F66
:101B200002DD02274FF00008E08840EA0800384351
:101B30002884A088A1890843618808432188084334
:101B400040F4006040EA0909A5F81C9005B0BDE822
:101B5000F08F0021018041808180C180018141811D
:101B60008181C1810721018270470021018041806C
:101B70008180C1800221816000218181704721B173
:101B8000028842F04002028004E002884FF6BF73F0
:101B90001A400280704721B1828B42F480628283B6
:101BA00004E0828B4FF6FF331A408283704730B5D2
:101BB000002400230C110125A540ABB21AB1858881
:101BC0001D43858002E085889D43858030BD1AB124
:101BD00083880B43838002E083888B438380704734
:101BE000818170470146888970474FF6FF629142B4
:101BF00004D0028842F48072028004E002884FF62A
:101C0000FF631A400280704721B1828842F00402CB
:101C1000828004E082884FF6FB731A40828070470E
:101C200002884FF2FF731A40028002880A43028042
:101C30007047018841F480510180704721B10288CA
:101C400042F40052028004E002884DF6FF731A400D
:101C50000280704702460020012901D0108B00E06D
:101C6000908A70470146088A7047B1F5804F04D1C9
:101C7000028842F48042028004E002884BF6FF733F
:101C80001A40028070470246002013890B400BB1B6
:101C9000012000E000207047CA4302817047F0B580
:101CA0000246002000240023002501F00F07012632
:101CB000BE40B4B20B1101269E40B3B2968806EA2C
:101CC00003051689264016B10DB1012000E0002061
:101CD000F0BD10B5002201F00F040123A3409AB219
:101CE000D343038110BD00000030014000380040A4
:101CF000003C004010B50446FE48844208D1012152
:101D0000C014FFF727FE0021E014FFF723FEC4E014
:101D1000B4F1804F08D101210846FFF728FE0021C9
:101D20000120FFF724FEB8E0F348844208D10121E6
:101D30000220FFF71CFE00210220FFF718FEACE096
:101D4000EE48844208D101210420FFF710FE002153
:101D50000420FFF70CFEA0E0E948844208D10121ED
:101D60000820FFF704FE00210820FFF700FE94E0A2
:101D7000E448844208D101211020FFF7F8FD00213A
:101D80001020FFF7F4FD88E0DF48844208D10121EC
:101D90002020FFF7ECFD00212020FFF7E8FD7CE08C
:101DA000DA48844208D101214014FFF7D3FD002115
:101DB0006014FFF7CFFD70E0D548844209D10121BE
:101DC000C804FFF7C7FD00214FF40020FFF7C2FD54
:101DD00063E0D048844209D101210805FFF7BAFD2C
:101DE00000214FF48010FFF7B5FD56E0CA48844249
:101DF00009D101214805FFF7ADFD00214FF4001086
:101E0000FFF7A8FD49E0C548844208D101214020E0
:101E1000FFF7ADFD00214020FFF7A9FD3DE0C048E0
:101E2000844208D101218020FFF7A1FD00218020FC
:101E3000FFF79DFD31E0BB48844208D101218015A8
:101E4000FFF795FD0021A015FFF791FD25E0B648AD
:101E5000844209D101210804FFF77CFD00214FF4E1
:101E60008030FFF777FD18E0B048844209D10121A6
:101E70004804FFF76FFD00214FF40030FFF76AFDC3
:101E80000BE0AB48844208D101218804FFF762FDD2
:101E900000214FF48020FFF75DFD10BD0022028875
:101EA000944B98420ED0994B98420BD0B0F1804F92
:101EB00008D0914B984205D0904B984202D0904B5D
:101EC000984204D14FF68F731A404B881A438D4BBA
:101ED000984207D08C4B984204D04FF6FF431A40EB
:101EE000CB881A4302808B8883850B880385814BBE
:101EF00098420BD0854B984208D08B4B984205D026
:101F00008A4B984202D08A4B984201D10B7A0386C1
:101F100001238382704770B5002400220023058CC2
:101F20004FF6FE7635400584028C8388048B4FF68D
:101F30008F752C40B51E2C400D882C43751E2A40F1
:101F40000D892A434D882A436A4DA8420BD06F4D14
:101F5000A84208D0744DA84205D0744DA84202D0C2
:101F6000734DA84213D14FF6F7752A404D892A4385
:101F70004FF6FB752A408D882A434FF6FF652B40AC
:101F80004FF6FF552B408D892B43CD892B43838002
:101F90000483CD888586028470BD70B5002400223C
:101FA0000023058C4FF6EF7635400584028C83883C
:101FB000048B48F6FF752C404FF6FF452C400D88EA
:101FC0004FF6FF7606EA05252C434FF6DF752A40CB
:101FD0000D8906EA05152A434D8806EA05152A43A8
:101FE000444DA84202D0494DA8421DD14FF67F75FD
:101FF0002A404D894FF6FF7606EA05152A434FF62B
:10200000BF752A408D8806EA05152A434FF6FF352D
:102010002B404FF2FF752B408D8906EA85052B4337
:10202000CD8906EA85052B4383800483CD88058707
:10203000028470BD70B5002400220023058C4FF689
:10204000FF6635400584028C8388848B4FF68F753C
:102050002C404FF6FC752C400D882C434FF6FF5555
:102060002A400D894FF6FF7606EA05252A434D885A
:1020700006EA05252A431F4DA84202D0234DA84257
:102080001DD14FF2FF752A404D894FF6FF7606EAC3
:1020900005252A434FF6FF352A408D8806EA052597
:1020A0002A434EF6FF752B404DF6FF752B408D8968
:1020B00006EA05152B43CD8906EA05152B438380D7
:1020C0008483CD888587028470BD70B5002200238B
:1020D0000024058C4EF6FF7635400584038C8488F9
:1020E000828B48F6FF752A404FF6FF452A400D883F
:1020F00020E00000002C01400004004000080040E7
:10210000000C00400010004000140040003401406A
:10211000004C0140005001400054014000180040B4
:10212000001C0040002000400040014000440140ED
:10213000004801404FF6FF7606EA05252A434DF692
:10214000FF752B400D8906EA05352B434D8806EABD
:1021500005352B43FA4DA84202D0FA4DA84208D1CA
:102160004BF6FF752C408D894FF6FF7606EA8515F4
:102170002C4384808283CD88A0F84050038470BDB6
:10218000828B4FF2FF331A408283828B4FF6FF73AC
:1021900003EA01231A4382837047F0B50C461546C3
:1021A000002200210026078C4EF6FF7C07EA0C0770
:1021B0000784828B018C4FF6FF7707EA043640F6DE
:1021C000FF473A404FF6FF7707EA05273A434FF6B5
:1021D000FF7707EA03373A43D94FB8420ED0D94FB9
:1021E000B8420BD0B0F1804F08D0D74FB84205D0DD
:1021F000D64FB84202D0D64FB84206D14DF6FF773F
:10220000394046F48057394305E047F6FF573940D7
:1022100044F48057394382830184F0BD828B4FF6AA
:10222000F3731A408283828B0A4382837047F0B52E
:102230000C461546002200210026078C4FF6FF6C45
:1022400007EA0C070784828B018C4FF6FF7707EAB9
:1022500004264FF60C773A404FF6FF7707EA03174C
:102260002F433A43B64FB8420ED0B64FB8420BD0C8
:10227000B0F1804F08D0B44FB84205D0B34FB84248
:1022800002D0B34FB84206D14FF6FF57394046F45B
:102290008077394305E04FF2FF57394044F48077A7
:1022A000394382830184F0BD028B4FF2FF331A4021
:1022B0000283028B4FF6FF7303EA01231A43028362
:1022C0007047F0B50C461546002200210026078C09
:1022D0004FF6EF7C07EA0C070784028B018C4FF660
:1022E000FF7707EA041640F6FF473A404FF6FF77BC
:1022F00007EA03373A434FF6FF7707EA05273A43E1
:102300008F4FB8420ED08F4FB8420BD0B0F1804FF4
:1023100008D08D4FB84205D08C4FB84202D08C4FB8
:10232000B84206D14FF6DF77394046F010073943FF
:1023300005E04FF65F77394044F0100739430283D8
:102340000184F0BD028B4FF6F3731A400283028BB7
:102350000A4302837047F0B50C461546002200215F
:10236000068C4FF6FE773E400684028B018C4FF6BA
:102370000C7632407E1C06EA03162E433243704E22
:10238000B0420ED06F4EB0420BD0B0F1804F08D0AB
:102390006D4EB04205D06D4EB04202D06C4EB04290
:1023A00006D14FF6FD76314044F00106314305E099
:1023B0004FF6F576314044F0010631430283018443
:1023C000F0BD70B505460C465D4885420ED05D48AF
:1023D00085420BD0B5F1804F08D05B48854205D0CF
:1023E0005A48854202D05A48854200D100E000BFD9
:1023F000208850B92389A28861882846FFF7ABFF5F
:10240000E1882846FFF79EFF25E0208804280AD1AE
:102410002389A28861882846FFF753FFE188284670
:10242000FFF742FF17E0208808280AD12389A288F5
:1024300061882846FFF7FBFEE1882846FFF7EEFE9D
:1024400009E02389A28861882846FFF7A6FEE18873
:102450002846FFF795FE70BD2DE9F04105460C4674
:1024600000260127608808B9022600E00026A0881F
:10247000012801D1022700E001272088A0B9238983
:10248000A28861882846FFF766FFE1882846FFF7A3
:1024900059FF23893A4631462846FFF712FFE18863
:1024A0002846FFF701FF13E02389A28861882846A8
:1024B000FFF707FFE1882846FFF7F6FE23893A4633
:1024C00031462846FFF747FFE1882846FFF73AFFE5
:1024D000BDE8F0810A884B881A438B881A43CB8861
:1024E0001A430B891A434B891A438B891A43A0F864
:1024F000442070474FF6FF71818000210180C18028
:102500004180017270470021018041808180C1803B
:10251000018141818181C181704700210180418019
:10252000012181800021C18001817047002101804B
:1025300041808180C180018141818181704700009B
:10254000002C01400034014000040040000800401D
:10255000000C004021B1028842F00102028004E038
:1025600002884FF6FE731A400280704731B1B0F80E
:10257000442042F40042A0F8442005E0B0F8442092
:10258000C2F30E02A0F8442070471AB183890B43AE
:10259000838102E083898B43838170478182704706
:1025A00041EA0203A0F8483070471AB183890B430F
:1025B000838102E083898B438381704701894FF6D1
:1025C000F8721140018170470A46002101894FF6D7
:1025D0008F73194011430181704730B504460D4691
:1025E00029462046FFF7F0FF208940F007002081B0
:1025F00030BD2DE9F04104460D4616461F46602DBC
:1026000006D13B46012231462046FFF75AFE05E03F
:102610003B46012231462046FFF79DFE29462046D3
:10262000FFF7D2FF208940F007002081BDE8F0814C
:1026300030B50C4600210189C9B24FF6FF7505EA95
:102640000325154325432943018130BD2DE9F04180
:1026500005460E4617469846002443463A463146FC
:102660002846FFF7E5FF2C894FF6F870044044F048
:1026700007044FF68F70044044F070042C81BDE8CD
:10268000F081F0B504460D4616461F463B463246DD
:1026900029462046FFF7CCFF208940F48040208166
:1026A000F0BD0185828270470A46002101884FF6FD
:1026B0008F731940114301807047F0B50C461546E1
:1026C0001E460021002200230189028B038C4FF655
:1026D000F877394021434FF6FC473A4040F2011762
:1026E0003A434FF6DD773B404FF6FF7707EA061790
:1026F0002F433B43018102830384F0BD0A4600213E
:10270000018B4FF68F7319401143018370470A46BE
:102710000021018B48F6FF7319404FF6FF7303EA5F
:1027200002231943018370470A460021818B4FF62B
:102730008F7319401143818370470A460021818BB2
:1027400048F6FF7319404FF6FF7303EA022319435B
:102750008183704721B1028842F08002028004E048
:1027600002884FF67F731A400280704721B1828839
:1027700042F00402828004E082884FF6FB731A4024
:102780008280704721B1828842F00802828004E092
:1027900082884FF6F7731A408280704721B1828891
:1027A00042F00102828004E082884FF6FE731A40F4
:1027B000828070470A460021018B4FF6F77319405B
:1027C0001143018370470A460021018B4FF2FF73CA
:1027D00019404FF6FF7303EA022319430183704740
:1027E0000A460021818B4FF6F7731940114381830C
:1027F00070470A460021818B4FF2FF7319404FF654
:10280000FF7303EA02231943818370470A460021BC
:10281000018B4FF6FB7319401143018370470A4641
:102820000021018B4FF6FF3319404FF6FF7303EA87
:1028300002231943018370470A460021818B4FF61A
:10284000FB7319401143818370470A460021818B35
:102850004FF6FF3319404FF6FF7303EA0223194383
:10286000818370470A460021018B4FF67F73194020
:102870001143018370470A460021018BC1F30E0109
:102880004FF6FF7303EA02231943018370470A4698
:102890000021818B4FF67F7319401143818370476C
:1028A0000A460021818BC1F30E014FF6FF7303EA44
:1028B00002231943818370470A460021018C4FF699
:1028C000FD7319401143018470470A460021018CB1
:1028D0004FF6F77319401143018470470A460021EF
:1028E000018C4FF6DF7319404FF6FF7303EA0213B2
:1028F0001943018470470A460021018C4FF67F730B
:1029000019404FF6FF7303EA02131943018470471D
:102910000A460021018C4FF6FF5319404FF6FF7312
:1029200003EA02231943018470470A460021018CFF
:102930004FF2FF7319404FF6FF7303EA0223194366
:10294000018470470A460021018C4DF6FF7319403F
:102950004FF6FF7303EA023319430184704730B521
:10296000002301248C40A3B2048C9C430484048C77
:1029700002FA01F5ADB22C43048430BD30B500231A
:1029800004248C40A3B2048C9C430484048C02FA7B
:1029900001F5ADB22C43048430BD70B50346002070
:1029A00000241846183001258D40ACB21D8CA5437B
:1029B0001D8409B1082909D100EB6100056825F0E3
:1029C000700505600568154305600EE00D1FC5F331
:1029D0004E052844056825F4E045056005684FF676
:1029E000FF7606EA02263543056070BD21B10288F4
:1029F00042F00202028004E002884FF6FD731A40A2
:102A00000280704721B1028842F00402028004E093
:102A100002884FF6FB731A400280704721B182880A
:102A200042F08002828004E082884FF67F731A4071
:102A30008280704702884FF6F7731A40028002883E
:102A40000A430280704782884FF68F731A40828053
:102A500082880A438280704702894FF6F8731A40D1
:102A6000028102890A430281704702894FF67F730F
:102A70001A40028102890A430281704781847047AB
:102A800081857047818670470187704781877047CD
:102A9000A0F84010704702884FF6FF431A400280AA
:102AA00002880A43028070470146888E70470146BB
:102AB000088F70470146888F70470146B1F8400083
:102AC00070470146888C70470146088D7047024662
:102AD0000020138A0B400BB1012000E0002070475A
:102AE000CA430282704730B502460020002300240A
:102AF000158A05EA0103958905EA010413B10CB1B1
:102B0000012000E0002030BDCA430282704700006F
:102B100010B50446FB48844209D101218803FEF721
:102B200019FF00214FF48040FEF714FF32E0F64811
:102B3000844209D101214804FEF719FF00214FF416
:102B40000030FEF714FF25E0F048844209D101214E
:102B50008804FEF70CFF00214FF48020FEF707FFEA
:102B600018E0EB48844209D10121C804FEF7FFFEBA
:102B700000214FF40020FEF7FAFE0BE0E548844206
:102B800008D101210805FEF7F2FE00214FF4801064
:102B9000FEF7EDFE10BD2DE9F04786B005460E4666
:102BA0000024A24600BFA1460027B08900B100BFA3
:102BB0002F462C8A4CF6FF700440F08804432C8288
:102BC000AC894EF6F3100440B0883189084371890E
:102BD00008430443AC81AC8A4FF6FF400440B089FF
:102BE0000443AC8201A8FEF72EFEC648874202D1FC
:102BF000DDF810A001E0DDF80CA0A88900F4004089
:102C000040B10AEBCA0000EB0A1031684900B0FB82
:102C1000F1F807E00AEBCA0000EB0A1031688900FE
:102C2000B0FBF1F86420B8FBF0F004012009642146
:102C300001FB1089A88900F4004040B1322000EB6C
:102C4000C900B0FBF1F000F00700044308E03220B7
:102C500000EB09106421B0FBF1F000F00F00044319
:102C60002C8106B0BDE8F0874FF4165101600021B9
:102C70008180C18001810C214181002181817047C7
:102C800010B502460020108A4FF2FF0318400B884F
:102C90004C8823438C882343CC88234318431082D9
:102CA00010BD0021018041808180C180704721B129
:102CB000828942F40052828104E082894DF6FF73DA
:102CC0001A4082817047F0B5034600240026002593
:102CD000002040F66A17B94200D100BF1846C1F380
:102CE000421401F01F06012707FA06F5012C01D155
:102CF0000C3004E0022C01D1103000E014301AB185
:102D000007682F43076002E00768AF430760F0BD24
:102D10001AB1838A0B43838202E0838A8B438382C6
:102D20007047028A4FF6F0731A400282028A0A4301
:102D30000282704782894FF2FF731A408281828932
:102D40000A438281704721B1828942F00202828166
:102D500004E082894FF6FD731A4082817047028A2F
:102D60004FF6DF731A400282028A0A4302827047DA
:102D700021B1028A42F48042028204E0028A4BF6C8
:102D8000FF731A4002827047C1F3080282807047C5
:102D900001468888C0F308007047818941F001012D
:102DA00081817047028BD2B20283028B42EA0122F8
:102DB00002837047028B02F47F420283028B0A4334
:102DC0000283704721B1828A42F02002828204E0AD
:102DD000828A4FF6DF731A408282704721B1828A5D
:102DE00042F01002828204E0828A4FF6EF731A40AA
:102DF0008282704721B1828A42F00802828204E016
:102E0000828A4FF6F7731A408282704721B1828915
:102E100042F40042828103E08289C2F30E02828181
:102E2000704721B1828A42F40062828204E0828A81
:102E30004FF2FF731A4082827047828A4FF6FB730B
:102E40001A408282828A0A438282704721B1828A32
:102E500042F00202828204E0828A4FF6FD731A4039
:102E60008282704702460020B1F5007F00D100BF8A
:102E700013880B400BB1012000E00020704701F4E3
:102E80000072B2F5007F00D100BFCA4302807047D4
:102E900070B50246002400230025002040F66A1683
:102EA000B14200D100BFC1F3421501F01F0301265A
:102EB00006FA03F3012D02D19689334006E0022D74
:102EC00002D1168A334001E0968A33400C12012663
:102ED00006FA04F41688344013B10CB1012000E066
:102EE000002070BD10B50022002340F66A14A142F4
:102EF00000D100BF0A1201249440A3B2DC43048035
:102F000010BD00000038014000440040004800406F
:102F1000004C0040005000407CB5002514E069469C
:102F2000284601F013FE064666B9F74850F82540DA
:102F300044B1012C06D0D4E9020100EB81006064A9
:102F40000198A064681CC5B23F2DE8D97CBD00245F
:102F500000BF02E0C82001F003FFEC480078002821
:102F6000F8D0EB4800686421B0FBF1F0E849086054
:102F70000846006828B90020E6490870FF2001F0E3
:102F800027FE00BF01F0C4FF0446E3480068E349A0
:102F900008600020E0490860204601F0BDFFDF48DE
:102FA0000068DB490968B0FBF1F0C0F16400D94961
:102FB000087002F00CF8FFF7AFFF642001F0D0FEBC
:102FC000E0E700B587B0032000218022D44BCDE993
:102FD0000132CDE903104FF6FE703E23D14A009036
:102FE000AFF2950001F0CBFB06AACFA13E2001F085
:102FF0002FFD07B000BD002400BF00BF01F088FF17
:103000000446C5480068401CC3490860204601F0DA
:1030100083FF01F0DBFFF1E700B587B0032000215B
:103020008022C54BCDE90132CDE903104FF6FF7088
:103030003F23C24A0090AFF2410001F0A0FB06AA74
:10304000BFA13F2001F004FD07B000BD04E0002255
:1030500000F8012B4A1E91B20029F8D1704770B5D3
:10306000C821BB48FFF7F2FF00230FE0581C85B2D0
:1030700003EB8300B64901EB800405EB850001EB0F
:103080008006002020706660581C83B2092BEDD3A7
:1030900003EB8300AE4901EB8004002020706060E8
:1030A0000846AC49086070BD70B54FF47C71AA4801
:1030B000FFF7CCFF4FF480719348FFF7C7FF002460
:1030C00013E0601CC5B2C4EBC40000EB4000A24991
:1030D00001EB8003C5EBC50000EB400001EB80066F
:1030E0005E619EA0D864601CC4B20B2CE9D3C4EB13
:1030F000C40000EB4000984901EB800300205861B8
:1031000096A0D864002096490860934895490860C5
:1031100070BD0021944A1170002004E00021934A00
:103120001154411CC8B20828F8D30021904A1170EC
:10313000904A1170904A1160904A116070470020C7
:103140008F4908608F4908708F4908708F4908704F
:103150008F4908708F4908606F4908606F4908609F
:103160006B49086069490870704710B501F02AFF83
:10317000FFF7E5FFFFF7CDFFFFF796FFFFF76FFFC4
:1031800000F0EAFE01F0E1F9FFF746FFFFF719FF53
:1031900001F019FF10BD7E480078012808D1794858
:1031A0000078FF2804D277480078401C75490870E1
:1031B000704779496C4A1278885C6C49095C764A98
:1031C000515C01EBC0016B4A1170704710B50024CF
:1031D0006F480078012830D101F09AFE0446694812
:1031E000007820B167480078401E6649087065483D
:1031F0000078F8B964480078E0B9FFF7DAFF424890
:103200005C49097850F821005B490860594800780A
:103210005749097888420DD057480068806B401C98
:103220005549096888635B480068401C5949086033
:1032300001F08DFE204601F06FFE10BD10B5002498
:1032400053480078012811D101F062FE04464D4830
:10325000007840B94C480078FF2804D24A480078EA
:10326000401C49490870204601F056FE10BD10B5BB
:10327000002401F04DFE044642480078F8B9424867
:103280000078E0B9FFF795FF1F483A49097850F8F0
:103290002100394908603748007835490978884263
:1032A0000DD035480068806B401C3349096888633D
:1032B00038480068401C3749086001F041FE20464C
:1032C00001F02AFE10BD10B5002431480078012815
:1032D0006FD101F01DFE04462B48007880B12A48CA
:1032E0000078401E284908700846007848B92548EB
:1032F000007838B9204601F00FFEFFF7B8FF58E01C
:1033000054E04FE04AE00000B00A0020BC0000207A
:10331000B4000020B0000020CC000020B800002045
:10332000B0060020AC08002075432F4F532D4949AB
:103330002053746174000000B0080020AC0A002023
:1033400075432F4F532D49492049646C6500000097
:1033500098050020A8000020B00B00203F000000CE
:10336000DC000020D4000020C1000020C2000020AA
:10337000BF000020C0000020D8000020D0000020A6
:10338000E8000020BD000020BE000020CB0000208F
:10339000CA000020A4000020F6AF0008204601F07B
:1033A000BBFD06E0204601F0B7FD02E0204601F03B
:1033B000B3FD10BD10B5EB48007890B9FFF7F9FEEA
:1033C000E9480078E9490870E948E749097850F880
:1033D0002100E849086008460068E749086001F0F4
:1033E0009EFD10BD10B50024022001F0B9FC01F0D3
:1033F0008FFD04460020E1490860204601F08CFD65
:10340000642001F0ADFC01F083FD0446DB48006858
:10341000DB4908600120DB490870204601F07CFD93
:1034200010BD70B5002601F022FE01F071FD0646C8
:10343000D5480068401CD4490860304601F06CFD56
:10344000C8480078012853D1D048007820B101281D
:1034500004D0022809D103E001250BE0002509E092
:1034600001250120C949087004E001250020C74951
:10347000087000BF00BF05B970BDC548046833E0DF
:1034800001F046FD0646E06A50B3E06A401EE06285
:10349000E06A28BB94F8300000F0370040B114F81F
:1034A000300F00F0C800207001206070303C02E056
:1034B000002084F8310094F8300000F0080078B95A
:1034C0003434A078B34909780843B24908702078A9
:1034D000B149085C6178084314F83419AE4A505475
:1034E0006469304601F018FD94F832003F28C7D1D6
:1034F00000BFC1E740F223107047704710B590F845
:10350000342001F10B039B5C90F83540A34301F19B
:103510000B04A35423469B5C23B98B7A90F8364066
:10352000A3438B7210BD2DE9F04F05460F46904620
:103530009946A87A99490E5C05F10B00805D11F857
:1035400000B00BEBC60000F0FF0A894850F82A4093
:1035500000202034E0602760207C20EA08002074EE
:1035600084F81190207C203C00F0080068B994F8A1
:103570003600884909780843864908708648805D86
:1035800094F8351008438449885529462046FFF7AA
:10359000B5FF5046BDE8F08F10B5774A1268D0618C
:1035A000754A126892F8343000F10B02D25C724B0B
:1035B0001B6893F835301A436F4B1B6893F83440FF
:1035C00000F10B031A55827A6B4B1B6893F8363067
:1035D0001A438272684A126892F834106E4A525C3A
:1035E000654B1B6893F835309A436B4B5A541A4617
:1035F000525C42B9604A126892F83630654A1278D5
:103600009A43644B1A7010BD014600228A72002052
:1036100005E0002301F10B021354421CD0B208282C
:10362000F7D3704705E011F8013B00F8013B531E4A
:103630009AB2002AF7D170470146002002E0491CE7
:10364000421CD0B20A78002AF9D170472DE9F84F10
:1036500005460F4690469946DDE90AAB00200090EA
:1036600001F056FC00904E480468002C75D01834C8
:1036700054F8040C4A490860009801F04DFC44F8E5
:10368000187CA576002020766076606144F814BC32
:1036900044F80CAC44F8108C0C9824F8080C24F86E
:1036A000069C0020E077E810207705F00700E07620
:1036B000217F01208840A077E17E0120884060774B
:1036C00000206060E060A0602062A0626062E06252
:1036D0002063AFF278306063183C002606E00021DA
:1036E00004F1500040F82610701CC6B2002EF6D02F
:1036F000204601F0BBFC204601F066FC01F008FC0E
:1037000000901B4840F82540214800686061002077
:10371000A0611F48006810B11D48006884611C4802
:1037200004603434A0781B490978084319490870AB
:1037300020781949085C6178084314F83419164A4E
:10374000505418480078401C16490870009801F041
:10375000E3FB0020BDE8F88FFFE7009801F0DCFBF9
:103760004220F7E7CA000020C0000020BF00002070
:10377000B00A0020D8000020D0000020CC0000209B
:10378000B4000020BC000020E8000020E000002081
:10379000DC000020C1000020C2000020F6AF0008BD
:1037A000D4000020CB0000202DE9F05F04460F4636
:1037B00091461E464FF0000B2078052804D00120CA
:1037C00030700020BDE8F09F09F0800ABAF1000FC8
:1037D00004D029F080094FF0010801E04FF0000803
:1037E0000020307001F094FB8346B9F1000F2CD01B
:1037F000B9F1010F3BD0B9F1020F03D0B9F1030FBA
:1038000046D111E0208900EA0705BD4206D1B8F192
:10381000010F05D12089A843208101E0702030707C
:10382000584601F079FB3AE0208900EA070535B1F6
:10383000B8F1010F05D12089A843208101E0702053
:103840003070584601F068FB29E0208927EA00051E
:10385000BD4206D1B8F1010F05D12089284320814E
:1038600001E070203070584601F056FB17E02089C7
:1038700027EA000535B1B8F1010F05D120892843A9
:10388000208101E070203070584601F045FB06E0D1
:10389000584601F041FB00256F20307000BF00BF8B
:1038A00028468FE72DE9F04106460D460027FA48E5
:1038B000007820B1102028700020BDE8F08101F0D0
:1038C00027FB0746F548046884B100684068F3495F
:1038D000086005202070268100206060F0A0E06074
:1038E000384601F019FB0020287004E0384601F04A
:1038F00013FB722028702046DFE730B501464A6886
:1039000008682AB9CC68606028B10025456002E0EB
:10391000106000B142608B6800255D6230BDF0B57B
:1039200006460F46B4680020283460602780207A5D
:1039300000F0DF00207200206072207A283C88B9F5
:103940003434A078D74909780843D64908702078DC
:10395000D549085C6178084314F83419D24A5054A8
:10396000012500E000253046FFF7C7FF2846F0BDDF
:103970002DE9F0470446894615464FF0000AC6482F
:10398000007820B10F2028702046BDE8F08720780D
:10399000052803D0012028702046F6E701F0B8FA88
:1039A0008246606808B1012700E00027B9F1000FE6
:1039B00003D0B9F1010F3CD119E08FB9B8A0E06094
:1039C00000202070B5480068606000202081B34866
:1039D0000460504601F0A0FA00202870002605E09F
:1039E000504601F099FA49202870264628E0D4F87C
:1039F000048005E000214046FFF791FFD8F80080E1
:103A0000B8F1000FF6D1A6A0E06000202070A34816
:103A10000068606000202081A0480460504601F0EA
:103A20007BFA012F01D1FFF722FC0020287000262D
:103A300006E0504601F070FA07202870264600BFC5
:103A400000BF3046A1E72DE9F04105460E46144679
:103A500000279148007820B1112020700020BDE897
:103A6000F08101F055FA07462878052806D0384637
:103A700001F052FA012020700020F0E7E868306081
:103A80003068FFF7D9FD8046384601F045FA00203E
:103A900020704046E3E72DE9F04105460E46144606
:103AA00000277D48007818B112202070BDE8F08111
:103AB00001F02EFA07462878052805D0384601F08F
:103AC0002BFA01202070F1E7EE60384601F024FA6D
:103AD0000020207000BFE9E7F0B51446059E734F43
:103AE0003F6897F8307047F02007DFF8C0C1DCF876
:103AF00000C08CF830700027DFF8B0C1DCF800C0DF
:103B00008CF83170694F3F68FE62684F3F68796298
:103B10000C828B74654F3F688F6047680F60002789
:103B20004F60C860456805B1696041605F4F3F689C
:103B300097F834205C4FBF5CDFF870C1DCF800C040
:103B40009CF835C027EA0C07DFF85CC10CF802705E
:103B50006746BF5C5FB9554F3F6897F836C0514F15
:103B60003F7827EA0C07DFF83CC18CF80070F0BD05
:103B70002DE9F04F89B005460F4691469A46129EB0
:103B8000002002904448007828B1022030700020C4
:103B900009B0BDE8F08F4648007818B10D203070AC
:103BA0000020F5E72878052803D001203070002098
:103BB000EEE709F0800BBBF1000F04D009F07F099C
:103BC0004FF0010801E04FF0000801F0A1F9029068
:103BD000B9F1000F4AD0B9F1010F78D0B9F1020F55
:103BE00003D0B9F1030F71D120E0288900EA07045E
:103BF000BC420FD1B8F1010F02D12889A04328811E
:103C00002A4800680485029801F086F90020307087
:103C10002046BDE74B463A4604A92846CDF800A009
:103C2000FFF75AFF029801F077F978E0288900EA57
:103C300007047CB1B8F1010F02D12889A043288183
:103C40001A4800680485029801F066F90020307077
:103C500020469DE74B463A4604A92846CDF800A0E9
:103C6000FFF73AFF029801F057F958E0288927EA50
:103C70000004BC421ED1B8F1010F02D128892043B3
:103C800028810A4800680485029801F045F900205F
:103C9000307020467CE71AE0BD000020AC00002018
:103CA0003F000000C1000020C2000020D000002022
:103CB000BE0000204B463A4604A92846CDF800A095
:103CC000FFF70AFF029801F027F928E01FE0288992
:103CD00027EA00047CB1B8F1010F02D12889204302
:103CE0002881B14800680485029801F015F9002088
:103CF000307020464CE74B463A4604A92846CDF89A
:103D000000A0FFF7E9FE029801F006F907E002982B
:103D100001F002F900246F203070204638E700BF20
:103D2000FFF7A5FA01F0F4F802909F48006890F8B8
:103D3000310020B39C48006890F8310003900020C7
:103D40009949096881F8310004A8FFF7D6FD0020E1
:103D50009549096881F83000029801F0DDF80024E7
:103D60000398012805D0022802D10E20307003E00C
:103D700000BF0A20307000BF00BF204608E78A4815
:103D80000068048DB8F1010F1ED1B9F1000F0ED0FB
:103D9000B9F1010F0CD0B9F1020F03D0B9F1030F43
:103DA0000AD100E000BF2889A04328810BE000BFB2
:103DB00028892043288106E0029801F0ADF86F20A1
:103DC00030700020E4E600BF029801F0A5F8002062
:103DD00030702046DCE670B5002501F099F8054604
:103DE00071480068048D284601F096F8204670BDA1
:103DF0002DE9FC5F0446894692461E46002000904D
:103E00002078052804D0012030700020BDE8FC9FF8
:103E100001F07EF80090BAF1000F03D0BAF1010F63
:103E20000AD104E0208920EA090020810BE02089E2
:103E300040EA0900208106E0009801F06DF8712049
:103E400030700020E2E700BF4FF0000B656855E0DE
:103E5000A87C40B3012838D0022802D0032844D1DE
:103E600011E02089298A00EA0107288AB84209D18D
:103E700039462846FFF753FD8046B8F1010F01D1BE
:103E80004FF0010B38E02089298A00EA01074FB181
:103E900039462846FFF743FD8046B8F1010F01D1AE
:103EA0004FF0010B28E0288A218920EA0107288A9F
:103EB000B84209D139462846FFF731FD8046B8F1AE
:103EC000010F01D14FF0010B16E0288A218920EA69
:103ED00001074FB139462846FFF721FD8046B8F16A
:103EE000010F01D14FF0010B06E0009801F014F82A
:103EF0006F203070002089E700BF2D68002DA7D10A
:103F0000009801F009F8BBF1010F01D1FFF7AFF9FB
:103F100000F0FEFF009020890190009800F0FCFF67
:103F200000203070019871E72DE9F04104460D46FC
:103F300000272078052804D0012028700020BDE843
:103F4000F08100F0E5FF07462689384600F0E4FFDF
:103F5000002028703046F2E72DE9F0415021134847
:103F6000FFF774F800250EE0681C86B20F4800EBDE
:103F7000051400EB0617002020706760AFF2E02008
:103F8000E060681C85B2042DEED3084800EB0514F0
:103F9000002020706060AFF2F820E0600348044920
:103FA0000860BDE8F0810000D0000020600600201D
:103FB000AC0000202DE9F04106460D464FF0000808
:103FC0003078022804D0012028700020BDE8F0815C
:103FD00000F09EFF80467468E08A78B12169081D70
:103FE00020610F68E08A401EE082A1682069884253
:103FF00001D1606820610020287002E01F20287035
:104000000027404600F088FF3846DFE72DE9F04101
:1040100006460F464FF00008F748007810B1002020
:10402000BDE8F08100F074FF8046F4480568006840
:1040300020B1F24800684068F0490860404600F04E
:104040006BFF3DB300F064FF8046ED480468C4B1E7
:1040500000680068EA490860404600F05DFF66605D
:1040600006EB8700A060E6602661A7820020E08260
:1040700002202870002028816C602846FFF7C4FACF
:1040800008E0DE4800686860DC480560404600F0F3
:1040900043FF00252846C3E72DE9F047044689463B
:1040A00015464FF0000A2078022804D0012028701D
:1040B0002046BDE8F087D048007818B10F2028705E
:1040C0002046F6E700F024FF8246A07A10B14FF0B8
:1040D000010801E04FF00008B9F1000F03D0B9F179
:1040E000010F45D11FE0B8F1000F15D16668C44833
:1040F00000683060C248066000202070BF48006839
:10410000606000202081BD480460504600F004FF3C
:1041100000202870002705E0504600F0FDFE4920F1
:10412000287027462BE005E000230422194620468C
:10413000FFF7F9F9A07A0028F6D16668B048006860
:104140003060AF48066000202070AC4800686060B6
:1041500000202081A9480460504600F0DDFEB8F13F
:10416000010F01D1FFF783F800202870002706E037
:10417000504600F0D1FE07202870274600BF00BF40
:10418000384696E770B50546002600F0C1FE0646A3
:104190006C686068E060606820610020E082304602
:1041A00000F0BAFE002070BD2DE9F04707468846B2
:1041B00015464FF000093878022804D001202870F5
:1041C0000020BDE8F0878C48007818B102202870E4
:1041D0000020F6E78B48007818B10D2028700020E9
:1041E000EFE700F095FE81467C68E08A98B121698E
:1041F000081D20610E68E08A401EE082A1682069E7
:10420000884201D160682061484600F085FE0020A8
:1042100028703046D5E77C48006890F8300040F0C0
:1042200004007949096881F830000020764909685E
:1042300081F8310074480068C0F82C803846FFF7D8
:10424000ABF9484600F068FEFFF711F800F060FE99
:1042500081466D48006890F8310020B101280DD0EA
:1042600002280AD105E068480068066A0020287024
:104270000DE000260E20287009E000BF3946624894
:104280000068FFF73BF900260A20287000BF00BF36
:1042900000205D49096881F830005B49096881F8B0
:1042A000310059490968C861574909680862484698
:1042B00000F032FE304684E72DE9F04104460F4617
:1042C00015464FF000082078022804D001202870FD
:1042D0000020BDE8F08100F01BFE8046A07A20B3EC
:1042E00000267FB1012F0CD107E002230422002118
:1042F0002046FFF718F9701CC6B2A07A0028F4D146
:1043000009E000BF0223042200212046FFF70BF939
:10431000701CC6B200BF00BF404600F0FDFDFEF7B6
:10432000A6FF0E2028703046D3E7404600F0F4FD8B
:104330000020287000BFCCE72DE9F04105460E466D
:1043400000272878022802D00120BDE8F08100F083
:10435000DFFD0746A87A60B10023042231462846D3
:10436000FFF7E1F8384600F0D7FDFEF780FF0020A8
:10437000EBE76C68E08AA18A884204DB384600F0EB
:10438000CBFD1E20E1E7E168081DE0600E60E08AD9
:10439000401CE082D4E90210884201D16068E060EC
:1043A000384600F0B9FD0020CFE72DE9F041054681
:1043B0000E4600272878022802D00120BDE8F081AF
:1043C00000F0A6FD0746A87A60B10023042231461A
:1043D0002846FFF7A8F8384600F09EFDFEF747FF95
:1043E0000020EBE76C68E08AA18A88420EDB384641
:1043F00000F092FD1E20E1E7BD000020A800002093
:10440000E4000020BE000020D00000206168206988
:10441000884201D1A06820612069001F20612069C5
:104420000660E08A401CE082384600F075FD0020FE
:10443000C4E72DE9F04105460F4616464FF0000847
:104440002878022802D00120BDE8F08100F060FD4C
:104450008046A87AE8B106F0010050B105E00023DB
:10446000042239462846FFF75EF8A87A0028F6D1DC
:1044700005E00023042239462846FFF754F8404659
:1044800000F04AFD06F0040008B9FEF7F0FE002037
:10449000DAE76C68E08AA18A884204DB404600F0D3
:1044A0003BFD1E20D0E706F0020058B1616820698C
:1044B000884201D1A06820612069001F2061206925
:1044C000076009E0E168081DE0600F60D4E90210B0
:1044D000884201D16068E060E08A401CE08240468A
:1044E00000F01AFD0020AFE72DE9F04705460C4625
:1044F0004FF0000A2878022802D00120BDE8F0879A
:1045000000F006FD8246A87A207405F10B0804F13C
:104510000809002705E018F8010B09F8010B781CC1
:10452000C7B2082FF7D36E68F08A18B130690068F7
:10453000206001E000202060F08AA080B08AE08046
:10454000504600F0E9FC0020D8E72DE9F041782141
:104550001048FEF77BFD00240DE0601C86B204EBE2
:1045600044000C4901EBC00506EB460001EBC00717
:104570002F60601C84B2042CEFD304EB4400054987
:1045800001EBC00500202860084603490860BDE82B
:10459000F0810000A00F0020E40000202DE9FF5F63
:1045A000814688460020009000F0B2FC0090F94857
:1045B00050F8280030B1009800F0AEFC282004B07C
:1045C000BDE8F09FB9F1FF0F03D1F348006890F800
:1045D0003290F04850F8294024B9009800F09CFC33
:1045E0002920ECE7012C04D1009800F095FC432031
:1045F000E5E74FEAE80708F0070003900120B8401C
:1046000000F0FF0A01210398814001F0FF0B002018
:10461000E04941F82900084640F8284014F8346F72
:10462000A07802906078343C0190DC48815D01986C
:104630000140D1B1D948805D01998843D749885557
:104640000846805D28B9D648007802998843D44945
:104650000870D348007840EA0A00D1490870CF4872
:10466000C05D40EA0B00CD49C855E569D5B105F1FB
:104670000B00805D0199884305F10B0188550846C0
:10468000805D18B9A87A02998843A872A87A40EA8E
:104690000A00A87205F10B00C05D40EA0B0005F1AD
:1046A0000B01C85584F8328084F83470039884F87C
:1046B000330084F836A084F835B0009800F02CFC64
:1046C000B8480078012801D1FEF7D1FD002076E737
:1046D0002DE9FE4F06460F4690461C464FF0000956
:1046E00000F016FC8146B048007828B1484600F03A
:1046F00013FC3C20BDE8FE8FA64850F8240060BBA8
:104700000120A44941F82400484600F005FC00239C
:1047100042463946304600F05BFC8246002000905D
:10472000019003460246514602902046FEF78EFF56
:10473000054635B99B48007801280CD1FEF797FD56
:1047400009E000F0E5FB81460020924941F8240091
:10475000484600F0E1FB2846CCE7484600F0DCFB89
:104760002820C7E702F0010343B102F002032BB196
:1047700002E0491E002308C00029FAD170472DE944
:10478000F04F85B081468A4693461C46DDE90F7896
:10479000129D0020039000F0BBFB0390824800783C
:1047A00030B1039800F0B8FB3C2005B0BDE8F08FB5
:1047B000784850F8240088BB0120764941F824004D
:1047C000039800F0A9FB2A4641463846FFF7CAFF86
:1047D0002B465A465146484600F0FAFB0490119881
:1047E000CDE9008002953A4620460E9B0499FEF7DB
:1047F0002DFF064636B96B48007801280CD1FEF72C
:1048000036FD09E000F084FB03900020614941F887
:104810002400039800F080FB3046C6E7FFE70398CA
:1048200000F07AFB2820C0E72DE9F041054600277B
:104830005D48007810B14020BDE8F0813F2D01D1E6
:104840003E20F9E700F064FB0746FF2D03D15248F4
:10485000006890F832504F4850F8254024B9384647
:1048600000F05AFB4320E7E7012C04D1384600F062
:1048700053FB3D20E0E714F8340F4849085C6178A9
:1048800088432178454A505414F834091146085C8D
:1048900030B994F83610424800788843404908708F
:1048A000E06918B12046E169FEF728FE666A16B194
:1048B0003046FFF722F80020E06284F8300084F8E8
:1048C00031003A480078FF2804D238480078401C6C
:1048D00036490870384600F01FFBFEF70EFE00F068
:1048E00017FB07463148007820B130480078401E59
:1048F0002E490870204600F068FB2D480078401EC5
:104900002B4908700020234941F82500A06930B9DF
:1049100000206169886127496069086005E0D4E981
:1049200005014861D4E90510886123480068606189
:104930002148046021A0E064384600F0EDFA1948EF
:104940000078012801D1FEF792FC002074E72DE9E0
:10495000F041044600273F2C02D13E20BDE8F08103
:10496000FF2C0BD100F0D4FA07460B48006890F8F2
:104970003760384600F0D0FA3046EFE700F0C8FA6A
:104980000746044850F82450D5B9384600F0C4FA18
:104990004320E3E7B00A0020D0000020C20000203E
:1049A000C1000020CA000020BD000020BE00002081
:1049B000CB000020DC000020D40000203F000000DD
:1049C000012D04D1384600F0A7FA3D20C6E73F206C
:1049D00085F83700384600F09FFA0020BEE72DE941
:1049E000F04706460F4614464FF00008D6480078B8
:1049F00020B1112020700020BDE8F08700F088FA77
:104A00008046FF2E03D1D148006890F83260D0482C
:104A100050F8265035B9404600F07EFA4320207009
:104A20000020E9E7012D06D1404600F075FA432049
:104A300020700020E0E7E86C38603868FEF7FCFD85
:104A40008146404600F068FA002020704846D3E7CF
:104A50002DE9F04106460F4614464FF00008BA48CB
:104A6000007818B112202070BDE8F08100F050FAF3
:104A70008046FF2E03D1B548006890F83260B448F4
:104A800050F826502DB9404600F046FA43202070D9
:104A9000EAE7012D05D1404600F03EFA43202070A0
:104AA000E2E7EF64404600F037FA0020207000BFD4
:104AB000DAE770B50546002600F02AFA0646A44853
:104AC00050F8254024B9304600F026FA462070BD43
:104AD000012C04D1304600F01FFA4320F7E794F888
:104AE000300000F0080060B314F8300F00F0F70059
:104AF000207014F83009F8B9E06AC8B93434A078E5
:104B00009449097808439349087020789249085CD1
:104B10006178084314F834198F4A5054304600F035
:104B2000FBF98E480078012809D1FEF7A0FB06E0CA
:104B3000304600F0F1F902E0304600F0EDF90020D7
:104B4000C5E7304600F0E8F94420C0E72DE9F0471A
:104B500007460D464FF0000A00202860686000F00C
:104B6000D7F98246FF2F03D17848006890F8327059
:104B7000774850F827402CB9504600F0CDF9432033
:104B8000BDE8F087012C04D1504600F0C5F9432060
:104B9000F6E7207C00F0010020B9504600F0BCF997
:104BA0004520EDE70026D4F80C90D4F80880504654
:104BB00000F0B2F900E0761C58F8041B0029FAD086
:104BC000B0002860A9EB0600800068600020D7E7ED
:104BD0002DE9F04105464FF0000800F099F98046B4
:104BE000FF2D05D15948006890F83250012608E0A1
:104BF0005648006890F83200A84201D1012600E032
:104C00000026534850F825402CB9404600F084F95E
:104C10004820BDE8F081012C04D1404600F07CF929
:104C20004320F6E794F834704B48C05D94F8351093
:104C300088434949C8550846C05D30B994F83610D4
:104C40004448007888434349087094F8300040F0A5
:104C5000080084F83000404600F05EF9012E01D1D2
:104C6000FEF705FB0020D4E72DE9F04105460E468E
:104C7000002700F04DF90746FF2D03D133480068A7
:104C800090F83250324850F825402CB9384600F0A0
:104C900043F92920BDE8F081012C04D1384600F009
:104CA0003BF94320F6E7542221463046FEF7BAFC92
:104CB000384600F031F90020ECE72DE9F0470446D2
:104CC0000E4617464FF0000900F022F98146FF2CEE
:104CD00002D11E48056802E01D4850F8245005F135
:104CE000500050F82680484600F016F90020387031
:104CF0004046BDE8F0872DE9F04704460E461746CA
:104D000098464FF0000900F003F98146FF2C02D1CC
:104D10000E48056802E00E4850F8245005F1500096
:104D200040F82670484600F0F7F8002088F80000A8
:104D3000BDE8F08710B50548006800F099F9FF203C
:104D4000FFF772FD10BD0000BD000020D000002064
:104D5000B00A0020C1000020C2000020CA000020CC
:104D600070B5054600266348007800B170BD624802
:104D7000007800B1FAE71DB300F0CAF806465F48B4
:104D8000006890F834405E48005D5C49096891F81D
:104D9000351088435A4908550846005D40B95748C0
:104DA000006890F8361057480078884355490870D5
:104DB00052480068C562304600F0AEF8FEF757FA78
:104DC00000BFD3E72DE9F04105460E4617461C46C5
:104DD0004848007810B15520BDE8F0814648007879
:104DE00008B13220F8E74FF47A7060434FF47A71DB
:104DF000B0FBF1F14FF461606843C6EB061200EBC3
:104E00008200384400EB4002C2EBC01001EBC00846
:104E10004046FFF7A5FF0020DEE770B505460026F7
:104E20003F2D01D32A2070BD00F072F806463648A7
:104E300050F8254024B9304600F06EF84320F2E7E0
:104E4000012C04D1304600F067F84320EBE7E06A1C
:104E500020B9304600F060F85020E4E70020E0621E
:104E600094F8300000F0370040B114F8300F20F013
:104E70003700207001206070303C02E0002084F890
:104E8000310094F8300000F00800A8B93434A0785C
:104E90001C49097808431B49087020781849085CA8
:104EA0006178084314F83419154A5054304600F01C
:104EB00033F8FEF7DCF902E0304600F02DF8002070
:104EC000B1E770B5002500F023F805460F480468E7
:104ED000284600F021F8204670BD70B50446002534
:104EE00000F016F8054609480460284600F014F85A
:104EF00070BD0000BD000020BE000020D0000020DA
:104F0000C2000020C1000020B00A0020E8000020FC
:104F1000EFF3108072B6704780F310887047204C12
:104F2000204D25604FF0000484F309881E4C4FF09B
:104F3000010525701D4C4FF08055256062B6FEE7D7
:104F400030B41A4C4FF08055256030BC704730B4F7
:104F5000164C4FF08055256030BC704700BF72B6CC
:104F6000EFF3098028B1203880E8F00F1049096874
:104F7000086000B50F4880475DF804EB0E480F4904
:104F80000A7802700A480E490A680260106890E8C0
:104F9000F00F203080F309884EF0040E62B670479F
:104FA00020ED00E00000FFFFCA00002004ED00E05B
:104FB000D00000206B500008BF000020C00000207F
:104FC000D80000207047704770477047704770479F
:104FD00070B5044610464FF080750560051F2846E1
:104FE0002C606FF00106051F28462E604FF0123628
:104FF000051F28462E604FF00336051F28462E60F9
:105000004FF00236051F28462E607610051F2846F1
:105010002E60051F284629604FF01136051F2846CF
:105020002E604FF01036051F28462E604FF00936CF
:10503000051F28462E604FF00836051F28462E60B3
:105040004FF00736051F28462E604FF00636051F25
:1050500028462E604FF00536051F28462E604FF07B
:105060000436051F28462E6070BD70477047704794
:1050700070470000F0B589B0202101A804F0FEF8C7
:1050800011250026AA208DF804008DF805000120C6
:105090008DF80600681FC0B28DF80700FA4948680D
:1050A000FA4905F0BDFD074605F01EFD000A8DF822
:1050B0000800F5494868F54905F0B2FD074605F0D6
:1050C00013FDC0B28DF80900EF490868EF4905F0FB
:1050D000A7FD074605F008FD000A8DF80A00EA4919
:1050E0000868EA4905F09CFD074605F0FDFCC0B2E2
:1050F0008DF80B00E4498868E44905F091FD074606
:1051000005F0F2FC000A8DF80C00DF498868DF49E1
:1051100005F086FD074605F0E7FCC0B28DF80D00EE
:10512000DB4800788DF81300002405E001A8005D3D
:105130003044C6B2601CC4B2681EA042F6DC8DF8D2
:105140001460002405E001A9085DFCF72CF8601C40
:10515000C4B21F2CF7DB09B0F0BDF0B589B01B2538
:10516000202101A804F08AF80026AA208DF8040066
:105170008DF8050002208DF80600681FC0B28DF87A
:105180000700C44908684FF07E5105F049FD074605
:1051900005F0AAFC000A8DF80E00BE4908684FF021
:1051A0007E5105F03DFD074605F09EFCC0B28DF82E
:1051B0000F00B84948684FF07E5105F031FD0746B1
:1051C00005F092FC000A8DF81000B24948684FF0D3
:1051D0007E5105F025FD074605F086FCC0B28DF82E
:1051E000110000208DF812008DF81300002405E056
:1051F00001A8005D3044C6B2601CC4B2681EA04263
:10520000F6DC8DF81E60002405E001A9085DFBF7BF
:10521000CAFF601CC4B21F2CF7DB09B0F0BD70B52B
:1052200088B019252021684604F028F80026AA2015
:105230008DF800008DF8010003208DF80200681F32
:10524000C0B28DF8030094480088000A8DF804006D
:10525000914800788DF805008F48C088000A8DF8C5
:1052600006008D4880798DF807008B484088000A39
:105270008DF80800884880788DF809008648808875
:10528000000A8DF80A00844800798DF80B008248E6
:105290000089000A8DF80C007F48007A8DF80D0017
:1052A0007D484089000A8DF80E007B48807A8DF891
:1052B0000F0079488089000A8DF810007648007B3D
:1052C0008DF811007448C089000A8DF812007248E8
:1052D000807B8DF813007048008A000A8DF8140056
:1052E0006D48007C8DF815006B48408A000A8DF8E7
:1052F00016006948807C8DF81700002405E01DF831
:1053000004003044C6B2601CC4B2681EA042F6DC81
:105310000DF80060002405E01DF80400FBF743FFD2
:10532000601CC4B21F2CF7DB08B070BD70B588B02C
:1053300015252021684603F0A1FF0026AA208DF83C
:1053400000008DF8010006208DF80200681FC0B231
:105350008DF8030051480088000A8DF804004F487A
:1053600000788DF805004E480088000A8DF8060088
:105370004B4800788DF807004A480088000A8DF8ED
:105380000800484800788DF8090047480088000A5E
:105390008DF80A00444800788DF80B00002405E0E1
:1053A0001DF804003044C6B2601CC4B2681EA0429E
:1053B000F6DC0DF80060002405E01DF80400FBF7A2
:1053C000F2FE601CC4B21F2CF7DB08B070BD70B5D4
:1053D00088B017252021684603F050FF0026AA2038
:1053E0008DF800008DF8010010208DF80200681F74
:1053F000C0B28DF803002D48006805F091FB000A4B
:105400008DF804002948006805F08AFBC0B28DF8C9
:1054100005002748006805F083FB000A8DF80600A8
:105420002348006805F07CFBC0B28DF807002148D6
:10543000006805F075FB000A8DF808001D4800683B
:1054400005F06EFBC0B28DF8090000208DF80A004F
:105450008DF80B00002405E01DF804003044C6B2AE
:10546000601CC4B2681EA042F6DC0DF80060002487
:1054700005E01DF80400FBF796FE601CC4B21F2C6B
:10548000F7DB08B070BD0000240100200000C84216
:10549000000000203C0100204801002020000020E6
:1054A00022000020240000202600002034000020DC
:1054B000380000203C00002070B50546002405E0BF
:1054C000601CC4B2C82C01DD002070BD0221FE4862
:1054D000FCF7D9FB0028F3D02946FB48FCF780FBFA
:1054E000002405E0601CC4B2C82C01DD0020ECE7FC
:1054F0000121F548FCF7C7FB0028F3D0F248FCF780
:1055000071FBC0B2E1E710B50446EF4800884FF6E2
:10551000C7710840EC49088008460088204308808D
:105520000121E948FCF72BFB10BD00B587B0012134
:1055300041F21500FCF7F4F9E020ADF8180018204E
:105540008DF81B0003208DF81A0006A9DF48FBF731
:105550002BFF1020ADF818008DF81B0006A9DC48C1
:10556000FBF722FF2020ADF8180028208DF81B0043
:1055700006A9D748FBF718FF1020ADF818008DF8E2
:105580001B0006A9D148FBF70FFF1021CF48FBF7FE
:10559000B8FF0020ADF804004FF48270ADF80600AB
:1055A0000020ADF80800ADF80A00ADF80C004FF48B
:1055B0000070ADF80E000820ADF810000020ADF826
:1055C00012000720ADF8140001A9BF48FCF732FA19
:1055D0000121BD48FCF7D3FAFF20FFF76DFF002043
:1055E000BC4908600120BC49C1F8900107B000BD6A
:1055F0002DE9F04107460D4616460020B7490860E0
:105600003846FFF759FF8046002405E0FF20FFF7EA
:1056100053FF2855601CC4B2B442F7DB0120AF49E8
:1056200008604046BDE8F0812DE9F04107460C4690
:1056300015460020A94908603846FFF73DFF80461F
:10564000002605E014F8010BFFF736FF701CC6B208
:10565000AE42F7DB0120A14908604046BDE8F08179
:105660001CB59FA103C9CDE9000105226946302080
:10567000FFF7DAFF052269461020FFF7B9FF002483
:1056800006E01DF80400A52800D003E0601CC4B2A9
:10569000052CF6DB00BF052C01D001201CBD00202D
:1056A000FCE770B505460C4600208C49086028468A
:1056B000FFF702FF06462046FFF7FEFE012086495F
:1056C000C1F89001304670BD70B504460020834992
:1056D00008602046FFF7F0FEFF20FFF7EDFE0546CD
:1056E00001207D49C1F89001284670BD2DE9F047A1
:1056F000814600207749086020224946A020FFF714
:1057000093FF01207849C1F8900100BF73487C38AD
:1057100000680028FAD10720FFF7D6FF044621468B
:105720002720FFF7BEFF04F0100030B1FF21E12079
:10573000FFF7B7FF1020BDE8F0872E2C01D1202005
:10574000F9E7202C6DD16020FFF7BEFF8246BAF149
:10575000210F61DA524665496120FFF749FF63482E
:105760000078AA285CD161484078AA2858D15F49BE
:10577000887804F03BFD074600225D4B04F098FB5F
:10578000054604F0B3FA5B4908605849C87804F04C
:105790002DFD07460022564B04F08AFB054604F017
:1057A000A5FA554908605149087904F01FFD0546DE
:1057B00000224F4B04F07CFB074604F097FA4F4958
:1057C00008604A49487904F011FD05460022484B1B
:1057D00004F06EFB074604F089FA49490860434922
:1057E000887904F003FD05460022414B04F060FB7C
:1057F000074604F07BFA434908603C49C87904F045
:10580000F5FC054600223A4B04F052FB074604F033
:105810006DFA3D49086003E0FF21E220FFF741FFF8
:1058200000BFFF2087E710B5044600202949086023
:10583000052236492A20FFF7F7FE05223449302099
:10584000FFF7F2FE01212120FFF72BFF012122208B
:10585000FFF727FF1A212420FFF723FF2821252007
:10586000FFF71FFF0F212620FFF71BFF012C08D198
:1058700020213120FFF715FF0F212020FFF711FF16
:1058800069E0022C08D120213120FFF70AFF0E2108
:105890002020FFF706FF5EE0032C42D1FF21E1202C
:1058A000FFF7FFFEFF21E220FFF7FBFE0F21202084
:1058B000FFF7F7FE5020FFF7FFFD7320FFF7FCFD19
:1058C00001213C2026E0000000300140000801409A
:1058D000001001409001214200002242900122422A
:1058E000A5A5A5A5A5000000000021427C0100207F
:1058F00000002440280000202C0000203000002060
:1059000034000020380000203C000020FBB00008DC
:10591000F6B00008FFF7C5FE06213D20FFF7C1FEE7
:1059200019E00E212020FFF7BCFEFF21E120FFF748
:10593000B8FEFF21E220FFF7B4FE5020FFF7BCFDC8
:105940007320FFF7B9FD01213C20FFF7AAFE0621D5
:105950003D20FFF7A6FE01200149086010BD0000B0
:105960009001214238B50446F74890F82400C0B1B0
:1059700014B10220009001E000200090F24A126869
:10598000D17BF14A526810786B46012203F06DF921
:1059900010B14FF0FF3038BD9DF80010EA48417457
:1059A00023E0E948807A10B94FF0FF30F3E724B1E3
:1059B000E548407C08B10020EDE714B101200090DB
:1059C00001E000200090E04A1268D17BDE4A526874
:1059D00010786B46012203F048F910B14FF0FF3008
:1059E000D9E79DF80010D84841740020D3E738B5B6
:1059F00000241FE0D4480068C07AA04204D0D248F6
:105A00000068407DA04200D112E0CF494968087883
:105A10006B460122214603F07BF810B14FF0FF30B6
:105A200038BD9DF800202146C8A003F0BDFA00BF94
:105A3000601CC4B2C44840680079A042DADC00208F
:105A4000EEE770B504460D46BF480068C07AA04234
:105A500004D0BD480068407DA04202D14FF0FF3025
:105A600070BDB94840680079A04202DC4FF0FF30B9
:105A7000F6E7B549496808782B460122214603F02C
:105A800047F8EDE738B50446AF4890F82300A04248
:105A900001D1002038BD14B13020009001E0002079
:105AA0000090A948807C20B19DF8000040F00200E1
:105AB0000090A54890F8220020B19DF8000040F029
:105AC00080000090A04A1268117D9F4A52681078A9
:105AD0006B46012203F0C9F810B14FF0FF30D9E74F
